S00C0000414443312E737265631F
S11300000C942A000C9434000C9434000C943400A6
S11300100C9434000C9434000C9434000C9434008C
S11300200C9434000C9434000C9434000C9434007C
S11300300C9434000C9434000C9434000C9434006C
S11300400C9436000C9434000C9434000C9434005A
S11300500C94340011241FBECFE5D8E0DEBFCDBF21
S11300600E9462000C9469000C9400001F920F928D
S11300700FB60F9211242F933F934F935F938F9357
S11300809F9384B195B10196880F892F881F990B8E
S11300909195009711F418BA0AC0019721E030E055
S11300A0A90102C0440F551F8A95E2F748BB9F91EE
S11300B08F915F914F913F912F910F900FBE0F90B1
S11300C01F9018958FEF87BB17B88DE886B9789481
S10900D0FFCFF894FFCFFE
S9030000FC
